{
  "contractName": "BookInventory",
  "abi": [
    {
      "inputs": [],
      "payable": false,
      "stateMutability": "nonpayable",
      "type": "constructor"
    },
    {
      "anonymous": false,
      "inputs": [
        {
          "indexed": false,
          "internalType": "string",
          "name": "_message",
          "type": "string"
        },
        {
          "indexed": false,
          "internalType": "bool",
          "name": "success",
          "type": "bool"
        }
      ],
      "name": "BookAlert",
      "type": "event"
    },
    {
      "constant": true,
      "inputs": [],
      "name": "id_book",
      "outputs": [
        {
          "internalType": "uint256",
          "name": "",
          "type": "uint256"
        }
      ],
      "payable": false,
      "stateMutability": "view",
      "type": "function"
    },
    {
      "constant": true,
      "inputs": [
        {
          "internalType": "uint256",
          "name": "",
          "type": "uint256"
        }
      ],
      "name": "id_books",
      "outputs": [
        {
          "internalType": "uint256",
          "name": "",
          "type": "uint256"
        }
      ],
      "payable": false,
      "stateMutability": "view",
      "type": "function"
    },
    {
      "constant": false,
      "inputs": [
        {
          "internalType": "string",
          "name": "_identifier",
          "type": "string"
        },
        {
          "internalType": "string",
          "name": "_name",
          "type": "string"
        },
        {
          "internalType": "uint256",
          "name": "_price",
          "type": "uint256"
        },
        {
          "internalType": "uint256",
          "name": "_cost",
          "type": "uint256"
        },
        {
          "internalType": "uint256",
          "name": "_units",
          "type": "uint256"
        },
        {
          "internalType": "string",
          "name": "_author",
          "type": "string"
        }
      ],
      "name": "addBook",
      "outputs": [],
      "payable": false,
      "stateMutability": "nonpayable",
      "type": "function"
    },
    {
      "constant": true,
      "inputs": [
        {
          "internalType": "uint256",
          "name": "_id",
          "type": "uint256"
        }
      ],
      "name": "getBook",
      "outputs": [
        {
          "internalType": "string",
          "name": "identifier",
          "type": "string"
        },
        {
          "internalType": "string",
          "name": "name",
          "type": "string"
        },
        {
          "internalType": "uint256",
          "name": "price",
          "type": "uint256"
        },
        {
          "internalType": "uint256",
          "name": "cost",
          "type": "uint256"
        },
        {
          "internalType": "uint256",
          "name": "units",
          "type": "uint256"
        },
        {
          "internalType": "string",
          "name": "author",
          "type": "string"
        }
      ],
      "payable": false,
      "stateMutability": "view",
      "type": "function"
    },
    {
      "constant": true,
      "inputs": [],
      "name": "getIdBooks",
      "outputs": [
        {
          "internalType": "uint256[]",
          "name": "",
          "type": "uint256[]"
        }
      ],
      "payable": false,
      "stateMutability": "view",
      "type": "function"
    },
    {
      "constant": true,
      "inputs": [],
      "name": "getIdBooksLength",
      "outputs": [
        {
          "internalType": "uint256",
          "name": "",
          "type": "uint256"
        }
      ],
      "payable": false,
      "stateMutability": "view",
      "type": "function"
    }
  ],
  "bytecode": "0x608060405234801561001057600080fd5b5060008081905550610c88806100276000396000f3fe608060405234801561001057600080fd5b50600436106100625760003560e01c80631ebe690f1461006757806335cf4397146100855780635e2e9f4b146100c7578063704f5435146102ce578063cd3e9aaf1461032d578063e0ff5b8b1461034b575b600080fd5b61006f6104df565b6040518082815260200191505060405180910390f35b6100b16004803603602081101561009b57600080fd5b81019080803590602001909291905050506104e5565b6040518082815260200191505060405180910390f35b6102cc600480360360c08110156100dd57600080fd5b81019080803590602001906401000000008111156100fa57600080fd5b82018360208201111561010c57600080fd5b8035906020019184600183028401116401000000008311171561012e57600080fd5b91908080601f016020809104026020016040519081016040528093929190818152602001838380828437600081840152601f19601f8201169050808301925050505050505091929192908035906020019064010000000081111561019157600080fd5b8201836020820111156101a357600080fd5b803590602001918460018302840111640100000000831117156101c557600080fd5b91908080601f016020809104026020016040519081016040528093929190818152602001838380828437600081840152601f19601f8201169050808301925050505050505091929192908035906020019092919080359060200190929190803590602001909291908035906020019064010000000081111561024657600080fd5b82018360208201111561025857600080fd5b8035906020019184600183028401116401000000008311171561027a57600080fd5b91908080601f016020809104026020016040519081016040528093929190818152602001838380828437600081840152601f19601f820116905080830192505050505050509192919290505050610506565b005b6102d6610801565b6040518080602001828103825283818151815260200191508051906020019060200280838360005b838110156103195780820151818401526020810190506102fe565b505050509050019250505060405180910390f35b610335610859565b6040518082815260200191505060405180910390f35b6103776004803603602081101561036157600080fd5b8101908080359060200190929190505050610866565b6040518080602001806020018781526020018681526020018581526020018060200184810384528a818151815260200191508051906020019080838360005b838110156103d15780820151818401526020810190506103b6565b50505050905090810190601f1680156103fe5780820380516001836020036101000a031916815260200191505b50848103835289818151815260200191508051906020019080838360005b8381101561043757808201518184015260208101905061041c565b50505050905090810190601f1680156104645780820380516001836020036101000a031916815260200191505b50848103825285818151815260200191508051906020019080838360005b8381101561049d578082015181840152602081019050610482565b50505050905090810190601f1680156104ca5780820380516001836020036101000a031916815260200191505b50995050505050505050505060405180910390f35b60005481565b600281815481106104f257fe5b906000526020600020016000915090505481565b60008090505b60028054905081101561068b57866040516020018082805190602001908083835b60208310610550578051825260208201915060208101905060208303925061052d565b6001836020036101000a038019825116818451168082178552505050505050905001915050604051602081830303815290604052805190602001206001600083815260200190815260200160002060000160405160200180828054600181600116156101000203166002900480156105ff5780601f106105dd5761010080835404028352918201916105ff565b820191906000526020600020905b8154815290600101906020018083116105eb575b505091505060405160208183030381529060405280519060200120141561067e577f2fe981982cf26fbc7b443462e4e1dd4338af9d8165d749640406c825e6f9eb8e60006040518080602001831515151581526020018281038252602c815260200180610c28602c91396040019250505060405180910390a1506107f9565b808060010191505061050c565b50600260005490806001815401808255809150509060018203906000526020600020016000909192909190915055506040518060c001604052808781526020018681526020018581526020018481526020018381526020018281525060016000805481526020019081526020016000206000820151816000019080519060200190610717929190610b82565b506020820151816001019080519060200190610734929190610b82565b5060408201518160020155606082015181600301556080820151816004015560a082015181600501908051906020019061076f929190610b82565b50905050600160008082825401925050819055507f2fe981982cf26fbc7b443462e4e1dd4338af9d8165d749640406c825e6f9eb8e6001604051808060200183151515158152602001828103825260188152602001807f426f6f6b207361766564207375636365737366756c6c792100000000000000008152506020019250505060405180910390a15b505050505050565b6060600280548060200260200160405190810160405280929190818152602001828054801561084f57602002820191906000526020600020905b81548152602001906001019080831161083b575b5050505050905090565b6000600280549050905090565b60608060008060006060604051602001806000019050604051602081830303815290604052805190602001206001600089815260200190815260200160002060000160405160200180828054600181600116156101000203166002900480156109065780601f106108e4576101008083540402835291820191610906565b820191906000526020600020905b8154815290600101906020018083116108f2575b505091505060405160208183030381529060405280519060200120141561096e57604051806020016040528060008152509550604051806020016040528060008152509450600093506000925060009150604051806020016040528060008152509050610b79565b6000600160008981526020019081526020016000209050806000018054600181600116156101000203166002900480601f016020809104026020016040519081016040528092919081815260200182805460018160011615610100020316600290048015610a1d5780601f106109f257610100808354040283529160200191610a1d565b820191906000526020600020905b815481529060010190602001808311610a0057829003601f168201915b50505050509650806001018054600181600116156101000203166002900480601f016020809104026020016040519081016040528092919081815260200182805460018160011615610100020316600290048015610abc5780601f10610a9157610100808354040283529160200191610abc565b820191906000526020600020905b815481529060010190602001808311610a9f57829003601f168201915b50505050509550806002015494508060030154935080600401549250806005018054600181600116156101000203166002900480601f016020809104026020016040519081016040528092919081815260200182805460018160011615610100020316600290048015610b705780601f10610b4557610100808354040283529160200191610b70565b820191906000526020600020905b815481529060010190602001808311610b5357829003601f168201915b50505050509150505b91939550919395565b828054600181600116156101000203166002900490600052602060002090601f016020900481019282601f10610bc357805160ff1916838001178555610bf1565b82800160010185558215610bf1579182015b82811115610bf0578251825591602001919060010190610bd5565b5b509050610bfe9190610c02565b5090565b610c2491905b80821115610c20576000816000905550600101610c08565b5090565b9056fe426f6f6b206e6f742073617665642c20746865207265666572656e636520616c726561647920657869737421a265627a7a723158209cbadd55d0669070a6085495bc12d9fa34ab02c298cb5a17deb496aee32aac5d64736f6c63430005100032",
  "source": "pragma solidity >=0.4.21 <0.7.0;\r\n\r\ncontract BookInventory {\r\n    \r\n    event BookAlert(string _message, bool success); \r\n\r\n    struct Book {\r\n        string identifier;\r\n        string name;\r\n        uint price;\r\n        uint cost;\r\n        uint units;\r\n        string author;\r\n    }\r\n\r\n    uint public id_book;\r\n    mapping (uint => Book) books;\r\n    uint[] public id_books;\r\n\r\n    constructor () public {\r\n        id_book = 0;    \r\n    }\r\n\r\n    function addBook(\r\n        string memory _identifier, \r\n        string memory _name, \r\n        uint _price, \r\n        uint _cost, \r\n        uint _units, \r\n        string memory _author\r\n    ) public {\r\n        for (uint i = 0; i < id_books.length; i++) {\r\n            if (keccak256(abi.encodePacked(books[i].identifier)) == keccak256(abi.encodePacked(_identifier))) {\r\n                emit BookAlert(\"Book not saved, the reference already exist!\", false);\r\n                return;\r\n            }\r\n        }\r\n        id_books.push(id_book);\r\n        books[id_book] = Book({\r\n            identifier: _identifier,\r\n            name: _name,\r\n            price: _price,\r\n            cost: _cost,\r\n            units: _units,\r\n            author: _author\r\n        });\r\n        id_book += 1;\r\n        emit BookAlert(\"Book saved successfully!\", true);\r\n        return;\r\n    }\r\n\r\n    function getBook(uint _id) public view returns (string memory identifier, string memory name, uint price, uint cost, uint units, string memory author) {\r\n        if (keccak256(abi.encodePacked(books[_id].identifier)) == keccak256(abi.encodePacked(\"\"))){\r\n            identifier = \"\";\r\n            name = \"\";\r\n            price = 0;\r\n            cost = 0;\r\n            units = 0;\r\n            author = \"\";\r\n        } else {\r\n            Book storage book = books[_id];\r\n            identifier = book.identifier;\r\n            name = book.name;\r\n            price = book.price;\r\n            cost = book.cost;\r\n            units = book.units;\r\n            author = book.author;\r\n        }\r\n    }\r\n\r\n    function getIdBooks() public view returns(uint[] memory) {\r\n        return id_books;\r\n    }\r\n\r\n    function getIdBooksLength() public view returns(uint) {\r\n        return id_books.length;\r\n    }\r\n}",
  "sourcePath": "C:/Users/santo/Documents/Personal/booking-inventory/contracts/BookInventory.sol",
  "compiler": {
    "name": "solc",
    "version": "0.5.16+commit.9c3226ce.Emscripten.clang"
  },
  "schemaVersion": "3.2.4",
  "updatedAt": "2020-10-25T17:39:31.838Z",
  "networkType": "ethereum",
  "devdoc": {
    "methods": {}
  },
  "userdoc": {
    "methods": {}
  }
}